{"abi":[{"type":"constructor","inputs":[{"name":"_marketId","type":"uint256","internalType":"uint256"},{"name":"_factory","type":"address","internalType":"address"},{"name":"_creator","type":"address","internalType":"address"},{"name":"_usdh","type":"address","internalType":"address"},{"name":"_oracle","type":"address","internalType":"address"},{"name":"_aggregator","type":"address","internalType":"address"},{"name":"_params","type":"tuple","internalType":"struct MarketParams","components":[{"name":"question","type":"string","internalType":"string"},{"name":"sector","type":"string","internalType":"string"},{"name":"iconEmoji","type":"string","internalType":"string"},{"name":"closesAt","type":"uint256","internalType":"uint256"},{"name":"resolvesAt","type":"uint256","internalType":"uint256"},{"name":"resType","type":"uint8","internalType":"enum ResolutionType"},{"name":"assetIndex","type":"uint32","internalType":"uint32"},{"name":"strikePrice","type":"uint256","internalType":"uint256"},{"name":"resolver","type":"address","internalType":"address"},{"name":"creatorFee","type":"uint256","internalType":"uint256"}]}],"stateMutability":"nonpayable"},{"type":"function","name":"FEE_DENOM","inputs":[],"outputs":[{"name":"","type":"uint256","internalType":"uint256"}],"stateMutability":"view"},{"type":"function","name":"MAX_CREATOR_FEE","inputs":[],"outputs":[{"name":"","type":"uint256","internalType":"uint256"}],"stateMutability":"view"},{"type":"function","name":"PLATFORM_FEE","inputs":[],"outputs":[{"name":"","type":"uint256","internalType":"uint256"}],"stateMutability":"view"},{"type":"function","name":"PRICE_SCALE","inputs":[],"outputs":[{"name":"","type":"uint256","internalType":"uint256"}],"stateMutability":"view"},{"type":"function","name":"aggregator","inputs":[],"outputs":[{"name":"","type":"address","internalType":"contract HyperFlexPriceAggregator"}],"stateMutability":"view"},{"type":"function","name":"bootstrap","inputs":[{"name":"yesAmount","type":"uint256","internalType":"uint256"},{"name":"noAmount","type":"uint256","internalType":"uint256"}],"outputs":[],"stateMutability":"nonpayable"},{"type":"function","name":"bootstrapNo","inputs":[],"outputs":[{"name":"","type":"uint256","internalType":"uint256"}],"stateMutability":"view"},{"type":"function","name":"bootstrapYes","inputs":[],"outputs":[{"name":"","type":"uint256","internalType":"uint256"}],"stateMutability":"view"},{"type":"function","name":"bootstrapped","inputs":[],"outputs":[{"name":"","type":"bool","internalType":"bool"}],"stateMutability":"view"},{"type":"function","name":"buy","inputs":[{"name":"isYes","type":"bool","internalType":"bool"},{"name":"usdhIn","type":"uint256","internalType":"uint256"},{"name":"minShares","type":"uint256","internalType":"uint256"}],"outputs":[{"name":"sharesOut","type":"uint256","internalType":"uint256"}],"stateMutability":"nonpayable"},{"type":"function","name":"cancelOrder","inputs":[{"name":"orderId","type":"uint256","internalType":"uint256"}],"outputs":[],"stateMutability":"nonpayable"},{"type":"function","name":"claim","inputs":[],"outputs":[],"stateMutability":"nonpayable"},{"type":"function","name":"createdAt","inputs":[],"outputs":[{"name":"","type":"uint256","internalType":"uint256"}],"stateMutability":"view"},{"type":"function","name":"creator","inputs":[],"outputs":[{"name":"","type":"address","internalType":"address"}],"stateMutability":"view"},{"type":"function","name":"creatorFeesAccrued","inputs":[],"outputs":[{"name":"","type":"uint256","internalType":"uint256"}],"stateMutability":"view"},{"type":"function","name":"emergencyPaused","inputs":[],"outputs":[{"name":"","type":"bool","internalType":"bool"}],"stateMutability":"view"},{"type":"function","name":"factory","inputs":[],"outputs":[{"name":"","type":"address","internalType":"address"}],"stateMutability":"view"},{"type":"function","name":"getMarketSummary","inputs":[],"outputs":[{"name":"question","type":"string","internalType":"string"},{"name":"sector","type":"string","internalType":"string"},{"name":"closesAt","type":"uint256","internalType":"uint256"},{"name":"yesPrice","type":"uint256","internalType":"uint256"},{"name":"volume","type":"uint256","internalType":"uint256"},{"name":"currentOutcome","type":"uint8","internalType":"enum Outcome"},{"name":"isResolved","type":"bool","internalType":"bool"},{"name":"isOneSided","type":"bool","internalType":"bool"},{"name":"hasBootstrap","type":"bool","internalType":"bool"}],"stateMutability":"view"},{"type":"function","name":"getNoPrice","inputs":[],"outputs":[{"name":"","type":"uint256","internalType":"uint256"}],"stateMutability":"view"},{"type":"function","name":"getOrderBook","inputs":[{"name":"depth","type":"uint256","internalType":"uint256"}],"outputs":[{"name":"bidPrices","type":"uint256[]","internalType":"uint256[]"},{"name":"bidSizes","type":"uint256[]","internalType":"uint256[]"},{"name":"askPrices","type":"uint256[]","internalType":"uint256[]"},{"name":"askSizes","type":"uint256[]","internalType":"uint256[]"}],"stateMutability":"view"},{"type":"function","name":"getQuote","inputs":[{"name":"isYes","type":"bool","internalType":"bool"},{"name":"usdhIn","type":"uint256","internalType":"uint256"}],"outputs":[{"name":"sharesOut","type":"uint256","internalType":"uint256"},{"name":"priceAfter","type":"uint256","internalType":"uint256"},{"name":"priceImpactBps","type":"uint256","internalType":"uint256"}],"stateMutability":"view"},{"type":"function","name":"getUserPosition","inputs":[{"name":"user","type":"address","internalType":"address"}],"outputs":[{"name":"yes","type":"uint256","internalType":"uint256"},{"name":"no","type":"uint256","internalType":"uint256"},{"name":"estimatedPayout","type":"uint256","internalType":"uint256"}],"stateMutability":"view"},{"type":"function","name":"getYesPrice","inputs":[],"outputs":[{"name":"","type":"uint256","internalType":"uint256"}],"stateMutability":"view"},{"type":"function","name":"hasClaimed","inputs":[{"name":"","type":"address","internalType":"address"}],"outputs":[{"name":"","type":"bool","internalType":"bool"}],"stateMutability":"view"},{"type":"function","name":"marketId","inputs":[],"outputs":[{"name":"","type":"uint256","internalType":"uint256"}],"stateMutability":"view"},{"type":"function","name":"nextOrderId","inputs":[],"outputs":[{"name":"","type":"uint256","internalType":"uint256"}],"stateMutability":"view"},{"type":"function","name":"noBalance","inputs":[{"name":"","type":"address","internalType":"address"}],"outputs":[{"name":"","type":"uint256","internalType":"uint256"}],"stateMutability":"view"},{"type":"function","name":"noReserve","inputs":[],"outputs":[{"name":"","type":"uint256","internalType":"uint256"}],"stateMutability":"view"},{"type":"function","name":"noShares","inputs":[],"outputs":[{"name":"","type":"uint256","internalType":"uint256"}],"stateMutability":"view"},{"type":"function","name":"oracle","inputs":[],"outputs":[{"name":"","type":"address","internalType":"contract IHyperCoreOracle"}],"stateMutability":"view"},{"type":"function","name":"orders","inputs":[{"name":"","type":"uint256","internalType":"uint256"}],"outputs":[{"name":"maker","type":"address","internalType":"address"},{"name":"isYes","type":"bool","internalType":"bool"},{"name":"priceLimit","type":"uint256","internalType":"uint256"},{"name":"usdhAmount","type":"uint256","internalType":"uint256"},{"name":"active","type":"bool","internalType":"bool"}],"stateMutability":"view"},{"type":"function","name":"outcome","inputs":[],"outputs":[{"name":"","type":"uint8","internalType":"enum Outcome"}],"stateMutability":"view"},{"type":"function","name":"params","inputs":[],"outputs":[{"name":"question","type":"string","internalType":"string"},{"name":"sector","type":"string","internalType":"string"},{"name":"iconEmoji","type":"string","internalType":"string"},{"name":"closesAt","type":"uint256","internalType":"uint256"},{"name":"resolvesAt","type":"uint256","internalType":"uint256"},{"name":"resType","type":"uint8","internalType":"enum ResolutionType"},{"name":"assetIndex","type":"uint32","internalType":"uint32"},{"name":"strikePrice","type":"uint256","internalType":"uint256"},{"name":"resolver","type":"address","internalType":"address"},{"name":"creatorFee","type":"uint256","internalType":"uint256"}],"stateMutability":"view"},{"type":"function","name":"placeLimitOrder","inputs":[{"name":"isYes","type":"bool","internalType":"bool"},{"name":"priceLimit","type":"uint256","internalType":"uint256"},{"name":"usdhAmount","type":"uint256","internalType":"uint256"}],"outputs":[{"name":"orderId","type":"uint256","internalType":"uint256"}],"stateMutability":"nonpayable"},{"type":"function","name":"platformFeesAccrued","inputs":[],"outputs":[{"name":"","type":"uint256","internalType":"uint256"}],"stateMutability":"view"},{"type":"function","name":"reclaimBootstrap","inputs":[],"outputs":[],"stateMutability":"nonpayable"},{"type":"function","name":"resolveInvalid","inputs":[],"outputs":[],"stateMutability":"nonpayable"},{"type":"function","name":"resolveManual","inputs":[{"name":"yesWins","type":"bool","internalType":"bool"}],"outputs":[],"stateMutability":"nonpayable"},{"type":"function","name":"resolveWithOracle","inputs":[],"outputs":[],"stateMutability":"nonpayable"},{"type":"function","name":"resolved","inputs":[],"outputs":[{"name":"","type":"bool","internalType":"bool"}],"stateMutability":"view"},{"type":"function","name":"sell","inputs":[{"name":"isYes","type":"bool","internalType":"bool"},{"name":"shares","type":"uint256","internalType":"uint256"},{"name":"minUsdh","type":"uint256","internalType":"uint256"}],"outputs":[{"name":"usdhOut","type":"uint256","internalType":"uint256"}],"stateMutability":"nonpayable"},{"type":"function","name":"setEmergencyPause","inputs":[{"name":"paused","type":"bool","internalType":"bool"}],"outputs":[],"stateMutability":"nonpayable"},{"type":"function","name":"settlementPrice","inputs":[],"outputs":[{"name":"","type":"uint256","internalType":"uint256"}],"stateMutability":"view"},{"type":"function","name":"totalCollateral","inputs":[],"outputs":[{"name":"","type":"uint256","internalType":"uint256"}],"stateMutability":"view"},{"type":"function","name":"usdh","inputs":[],"outputs":[{"name":"","type":"address","internalType":"contract IERC20"}],"stateMutability":"view"},{"type":"function","name":"withdrawFees","inputs":[],"outputs":[],"stateMutability":"nonpayable"},{"type":"function","name":"yesBalance","inputs":[{"name":"","type":"address","internalType":"address"}],"outputs":[{"name":"","type":"uint256","internalType":"uint256"}],"stateMutability":"view"},{"type":"function","name":"yesReserve","inputs":[],"outputs":[{"name":"","type":"uint256","internalType":"uint256"}],"stateMutability":"view"},{"type":"function","name":"yesShares","inputs":[],"outputs":[{"name":"","type":"uint256","internalType":"uint256"}],"stateMutability":"view"},{"type":"event","name":"BootstrapReclaimed","inputs":[{"name":"factory","type":"address","indexed":true,"internalType":"address"},{"name":"amount","type":"uint256","indexed":false,"internalType":"uint256"}],"anonymous":false},{"type":"event","name":"Bootstrapped","inputs":[{"name":"yesAmount","type":"uint256","indexed":false,"internalType":"uint256"},{"name":"noAmount","type":"uint256","indexed":false,"internalType":"uint256"}],"anonymous":false},{"type":"event","name":"EmergencyPause","inputs":[{"name":"paused","type":"bool","indexed":false,"internalType":"bool"}],"anonymous":false},{"type":"event","name":"MarketResolved","inputs":[{"name":"outcome","type":"uint8","indexed":false,"internalType":"enum Outcome"},{"name":"settlementPrice","type":"uint256","indexed":false,"internalType":"uint256"}],"anonymous":false},{"type":"event","name":"OneSidedRefund","inputs":[{"name":"user","type":"address","indexed":true,"internalType":"address"},{"name":"refund","type":"uint256","indexed":false,"internalType":"uint256"}],"anonymous":false},{"type":"event","name":"OrderCancelled","inputs":[{"name":"orderId","type":"uint256","indexed":true,"internalType":"uint256"},{"name":"maker","type":"address","indexed":true,"internalType":"address"},{"name":"refund","type":"uint256","indexed":false,"internalType":"uint256"}],"anonymous":false},{"type":"event","name":"OrderFilled","inputs":[{"name":"orderId","type":"uint256","indexed":true,"internalType":"uint256"},{"name":"taker","type":"address","indexed":true,"internalType":"address"},{"name":"usdhFilled","type":"uint256","indexed":false,"internalType":"uint256"},{"name":"sharesOut","type":"uint256","indexed":false,"internalType":"uint256"}],"anonymous":false},{"type":"event","name":"OrderPlaced","inputs":[{"name":"orderId","type":"uint256","indexed":true,"internalType":"uint256"},{"name":"maker","type":"address","indexed":true,"internalType":"address"},{"name":"isYes","type":"bool","indexed":false,"internalType":"bool"},{"name":"priceLimit","type":"uint256","indexed":false,"internalType":"uint256"},{"name":"amount","type":"uint256","indexed":false,"internalType":"uint256"}],"anonymous":false},{"type":"event","name":"TradePlaced","inputs":[{"name":"trader","type":"address","indexed":true,"internalType":"address"},{"name":"isYes","type":"bool","indexed":false,"internalType":"bool"},{"name":"usdhIn","type":"uint256","indexed":false,"internalType":"uint256"},{"name":"sharesOut","type":"uint256","indexed":false,"internalType":"uint256"},{"name":"newYesPrice","type":"uint256","indexed":false,"internalType":"uint256"}],"anonymous":false},{"type":"event","name":"WinningsClaimed","inputs":[{"name":"user","type":"address","indexed":true,"internalType":"address"},{"name":"usdhAmount","type":"uint256","indexed":false,"internalType":"uint256"}],"anonymous":false},{"type":"error","name":"AlreadyBootstrapped","inputs":[]},{"type":"error","name":"AlreadyResolved","inputs":[]},{"type":"error","name":"InvalidAmount","inputs":[]},{"type":"error","name":"MarketClosed","inputs":[]},{"type":"error","name":"MarketNotResolved","inputs":[]},{"type":"error","name":"NotOrderMaker","inputs":[]},{"type":"error","name":"NotResolver","inputs":[]},{"type":"error","name":"NothingToClaim","inputs":[]},{"type":"error","name":"OnlyFactory","inputs":[]},{"type":"error","name":"OrderNotActive","inputs":[]},{"type":"error","name":"Paused","inputs":[]},{"type":"error","name":"SlippageExceeded","inputs":[]},{"type":"error","name":"TooEarlyToResolve","inputs":[]}],"bytecode":{"object":"0x610160604052346200082857620034b6803803806200001e816200082c565b92833981019060e081830312620008285780516200003f6020830162000852565b6200004d6040840162000852565b6200005b6060850162000852565b916200006a6080860162000852565b936200007960a0870162000852565b60c087015190966001600160401b03821162000828576101408282018a03126200082857604051986101408a016001600160401b0381118b8210176200057757604052818301516001600160401b038111620008285781620000df918585010162000867565b8a52818301602001516001600160401b03811162000828578162000107918585010162000867565b60208b015281830160400151906001600160401b038211620008285762000132918484010162000867565b60408a015260608282010151918260608b01526080818301015160808b015260a081830101516004811015620008285760a08b015260c081830101519163ffffffff8316830362000828576101209260c08c015260e0828201015160e08c0152620001a36101008383010162000852565b6101008c015201015161012089015260015f55421015620007e3576080870151606088015110156200079e5760646101208801511162000759576101205260805260a0526001600160a01b0390811660c05290811660e0521661010052805180519091906001600160401b038111620005775760015490600182811c921680156200074e575b60208310146200055857601f9182811162000706575b5060208282116001146200067e57819293945f9262000672575b50508160011b915f199060031b1c1916176001555b602082015180519092906001600160401b0381116200057757600254600181811c9116801562000667575b602082101462000558578381116200061f575b5060208382116001146200059757819293945f926200058b575b50508160011b915f199060031b1c1916176002555b604081015180519092906001600160401b03811162000577576003918254600181811c911680156200056c575b6020821014620005585781811162000511575b506020908211600114620004ab57819293945f926200049f575b50508160011b915f1990841b1c19161790555b6060810151600455608081015160055560a08101519060048210156200048b576101209160065460ff64ffffffff0060c085015160081b1692169064ffffffffff1916171760065560e081015160075560018060a01b036101008201511660018060a01b0319600854161760085501516009554261014052670de0b6b3a764000080600f55601055604051612bde9081620008d88239608051818181610256015281816104c90152818161097701528181610f410152818161171b0152611bb9015260a0518181816117470152611f65015260c051818181610561015281816107e601528181610e1101528181611010015281816114b5015281816115e8015281816117f701528181611c0f0152612003015260e051816112a0015261010051818181611a3f0152611e5d0152610120518161136101526101405181610dd90152f35b634e487b7160e01b5f52602160045260245ffd5b015190505f8062000335565b601f19821690835f5260205f20915f5b818110620004f857509583600195969710620004e0575b505050811b01905562000348565b01515f1983861b60f8161c191690555f8080620004d2565b9192602060018192868b015181550194019201620004bb565b835f5260205f208280850160051c820192602086106200054e575b0160051c01905b8181106200054257506200031b565b5f815560010162000533565b925081926200052c565b634e487b7160e01b5f52602260045260245ffd5b90607f169062000308565b634e487b7160e01b5f52604160045260245ffd5b015190505f80620002c6565b60025f9081527f405787fa12a823e0f2b7631cc41b3ba8828b3321ca811111fa75cd3aa3bb5ace9190601f198416905b8181106200060657509583600195969710620005ed575b505050811b01600255620002db565b01515f1960f88460031b161c191690555f8080620005de565b9192602060018192868b015181550194019201620005c7565b60025f5260205f208480840160051c820192602085106200065d575b0160051c01905b818110620006515750620002ac565b5f815560010162000642565b925081926200063b565b90607f169062000299565b015190505f8062000259565b60015f9081527fb10e2d527612073b26eecdfd717e6a320cf44b4afac2b0732d9fcbe2b7fa0cf69190601f198416905b818110620006ed57509583600195969710620006d4575b505050811b016001556200026e565b01515f1960f88460031b161c191690555f8080620006c5565b9192602060018192868b015181550194019201620006ae565b60015f5260205f208380840160051c8201926020851062000744575b0160051c01905b8181106200073857506200023f565b5f815560010162000729565b9250819262000722565b91607f169162000229565b60405162461bcd60e51b815260206004820152601460248201527f63726561746f722066656520746f6f20686967680000000000000000000000006044820152606490fd5b60405162461bcd60e51b815260206004820152601360248201527f7265736f6c766520616674657220636c6f7365000000000000000000000000006044820152606490fd5b60405162461bcd60e51b815260206004820152601560248201527f636c6f736573206d7573742062652066757475726500000000000000000000006044820152606490fd5b5f80fd5b6040519190601f01601f191682016001600160401b038111838210176200057757604052565b51906001600160a01b03821682036200082857565b919080601f84011215620008285782516001600160401b03811162000577576020906200089d601f8201601f191683016200082c565b9281845282828701011162000828575f5b818110620008c35750825f9394955001015290565b8581018301518482018401528201620008ae56fe60c06040526004361015610011575f80fd5b5f3560e01c806301a9812c14611f9457806302d05d3f14611f505780630ffa9bed14611f1457806312b01b1614611ee357806316953f0214611ec657806321ae730714611ea957806322163b8614611e8c578063245a7bfc14611e4857806327793f8714611e1f57806327c7ff6114611e0257806327c830a914611ddd5780632a58b33014611dc05780633137b1e314611b8d57806334fbc9a114611b7257806335142c8c14611b505780633cb8c8f4146119dd5780633f6fa655146119bb5780633fbf5720146118f1578063476343ee146116ff5780634886c675146116e35780634ac8eb5f146116c65780634e71d92d14611556578063514fcac71461141e5780635b7c2dad146113c05780635b883917146113845780636ed71ede1461134a57806372a9fa6e1461132d57806373b2e80e146112ec578063764cfef1146112cf5780637dc0d1d01461128b5780638779086f146112695780638f9d0e6d1461124e578063a85c38ef146111e9578063b2670d74146111cc578063b92d8f9114610f8d578063c33f59d314610f70578063c45a015514610f2c578063c866222f14610f0f578063ca41488214610e40578063cb03517714610dfc578063cf09e0d014610dc2578063cff0ab9614610c28578063d368f976146109e9578063d8d1a6571461095c578063de2546591461069b578063e4d2e8471461049e578063e825648514610320578063f348e8b2146103035763f77c187714610234575f80fd5b346102ff575f3660031901126102ff5761024c6129ba565b60018060a01b03807f00000000000000000000000000000000000000000000000000000000000000001633149081156102f1575b50156102bd57600160ff19600381601254161760125560145416176014555f80516020612b8983398151915260408051600381525f6020820152a1005b60405162461bcd60e51b815260206004820152600c60248201526b1d5b985d5d1a1bdc9a5e995960a21b6044820152606490fd5b90506008541633145f610280565b5f80fd5b346102ff575f3660031901126102ff576020601354604051908152f35b346102ff5760403660031901126102ff576103396124ed565b60243560c8810281810460c8148215171561043d5761037590610370612710938480610367600954846127ce565b049304906127ff565b6127ff565b61037f818461292b565b9161038861297d565b9184156104955761039b81600f5461280c565b905b85156104835750601054905b6103b3828261280c565b1561047a57620f42409081830291838304148315171561043d576103e0926103da9161280c565b906127e1565b935b15610463578184111561045d576103f982856127ff565b82156104515781810291818304149015171561043d576104399161041c916127e1565b604051938493846040919493926060820195825260208201520152565b0390f35b634e487b7160e01b5f52601160045260245ffd5b5050506104395f61041c565b5f6103f9565b8382111561045d5761047584836127ff565b6103f9565b505081936103e2565b61048f9060105461280c565b906103a9565b600f549061039d565b346102ff5760403660031901126102ff576004356024356104c360025f541415612753565b60025f557f0000000000000000000000000000000000000000000000000000000000000000916001600160a01b0380841633036106895760ff600c5416610677578115158061066e575b156106335761055d93602091610523858561280c565b6040516323b872dd60e01b81526001600160a01b0390931660048401523060248401526044830152909485919082905f9082906064820190565b03927f0000000000000000000000000000000000000000000000000000000000000000165af1918215610628577fe50fc50cfccb830c5d9c049c6eb8a683e98eddf40af26210eeb4b7988aca167d936040936105f9575b5081600a5580600b55600160ff19600c541617600c556105d682600f5461280c565b600f556105e58160105461280c565b60105582519182526020820152a160015f55005b61061a9060203d602011610621575b610612818361257b565b81019061279f565b50846105b4565b503d610608565b6040513d5f823e3d90fd5b60405162461bcd60e51b8152602060048201526013602482015272189bdd1a081cda59195cc81c995c5d5a5c9959606a1b6044820152606490fd5b5082151561050d565b604051635c03d07560e11b8152600490fd5b604051630636a15760e11b8152600490fd5b346102ff576106a9366124fc565b906106b860025f541415612753565b60025f5560ff60145460081c1661094a576004544210156109395780156109275782156108ac57335f5260176020528060405f2054106108745761072590335f52601760205260405f2061070d8282546127ff565b905561071b81600d546127ff565b600d555b83612b4b565b60c8810281810460c8148215171561043d5761075f6127108092049161074d600954856127ce565b0492610759848461280c565b906127ff565b9361076c8260155461280c565b60155561077b8360165461280c565b60165561078a856011546127ff565b60115515610853576107b0916107a36107a8928661280c565b61280c565b600f546127ff565b600f555b81106108415760405163a9059cbb60e01b815233600482015260248101829052906020826044815f6001600160a01b037f0000000000000000000000000000000000000000000000000000000000000000165af191821561062857602092610824575b5060015f55604051908152f35b61083a90833d851161062157610612818361257b565b5082610817565b604051638199f5f360e01b8152600490fd5b61086c916107a3610864928661280c565b6010546127ff565b6010556107b4565b60405162461bcd60e51b815260206004820152601060248201526f696e73756666696369656e742059455360801b6044820152606490fd5b335f5260186020528060405f2054106108f05761072590335f52601860205260405f206108da8282546127ff565b90556108e881600e546127ff565b600e5561071f565b60405162461bcd60e51b815260206004820152600f60248201526e696e73756666696369656e74204e4f60881b6044820152606490fd5b60405163162908e360e11b8152600490fd5b60405162b5f6bf60e41b8152600490fd5b6040516313d0ff5960e31b8152600490fd5b346102ff5760203660031901126102ff576109756124ed565b7f00000000000000000000000000000000000000000000000000000000000000006001600160a01b031633036106895760207fb80d1ae5628c2af91424c54c87acfd15016be4bebeef0425b328238702f3483191151560145461ff008260081b169061ff00191617601455604051908152a1005b346102ff576020806003193601126102ff57600435610a07816128e5565b90610a11816128e5565b610a1a826128e5565b90610a24836128e5565b92610a2d61297d565b620f4240808281031161043d575f5b838110610a9157610a688861043989610a838a610a758f8c60405198899860808a5260808a0190612720565b9188830390890152612720565b908582036040870152612720565b908382036060850152612720565b610a9a816127b7565b831115610c2257610ab3610aad826127b7565b846127ff565b60019081830180841161043d57610acc610ad2916127b7565b8661280c565b9080610ade858d612917565b5284821015610c1c57815b610af3858b612917565b525f52601c8b528a60405f20835f8254935b848210610bab5750505050505f52601d8a5260405f205f908054915b828110610b345750505050600101610a3c565b808d610b4186938561286b565b919054600392831b1c5f52601b9182825260ff8160405f20015416610b6a575b50505001610b21565b610b74848761286b565b9054911b1c5f52528b610ba287610b9c600260405f200154610b968386612917565b5161280c565b92612917565b528e8e81610b61565b610bb5828561286b565b919054600392831b1c5f52601b9182825260ff8160405f20015416610be1575b5050500184908e610b05565b610beb848761286b565b9054911b1c5f5252610c098b610b9689600260405f20015492612917565b610c13888d612917565b528f8f81610bd5565b5f610ae9565b5f610ab3565b346102ff575f3660031901126102ff57610c4061259d565b610c4861266f565b906040515f926003549360018560011c9060018716968715610db8575b6020978884108114610da457838752908115610d865750600114610d2d575b505093610c9783610cdc9596038461257b565b6004549263ffffffff6005546006549060ff821690610cf660075495610ce860018060a01b0360085416986009549a6040519e8f9e8f9161014080845283019061253d565b9281840391015261253d565b908b820360408d015261253d565b9760608a01526080890152610d0a8161251f565b60a088015260081c1660c086015260e08501526101008401526101208301520390f35b60035f9081529692507fc2575a0e9e593c00f959f8c92f12db2869c3395a3b0502d05e2516446f71f85b5b828810610d7357509195840186019150610c97905083610c84565b8054868901850152968301968101610d58565b60ff1916868901525050151560051b830185019050610c9783610c84565b634e487b7160e01b5f52602260045260245ffd5b91607f1691610c65565b346102ff575f3660031901126102ff5760206040517f00000000000000000000000000000000000000000000000000000000000000008152f35b346102ff575f3660031901126102ff576040517f00000000000000000000000000000000000000000000000000000000000000006001600160a01b03168152602090f35b346102ff575f3660031901126102ff57610eae610e5b61259d565b610e6361266f565b60045490610e6f61297d565b60115460ff6012541660ff6014541691825f14610ef457610e8e612b10565b935b610ebc60ff600c5416966040519a8b9a610120808d528c019061253d565b908a820360208c015261253d565b96604089015260608801526080870152610ed58161251f565b60a0860152151560c0850152151560e084015215156101008301520390f35b600d54158015610f05575b93610e90565b50600e5415610eff565b346102ff575f3660031901126102ff576020600b54604051908152f35b346102ff575f3660031901126102ff576040517f00000000000000000000000000000000000000000000000000000000000000006001600160a01b03168152602090f35b346102ff575f3660031901126102ff576020604051620f42408152f35b346102ff57610f9b366124fc565b610fac60025f949394541415612753565b60025f5560ff60145460081c1661094a5760045442101561093957801561092757821515806111c0575b1561118b576040516323b872dd60e01b8152336004820152306024820152604481018290526020936001600160a01b03929185816064815f7f000000000000000000000000000000000000000000000000000000000000000089165af180156106285761116e575b50601a549361104c8561285d565b601a556040519360a0850185811067ffffffffffffffff82111761115a57604052338552600387860195831515968781526040820186815260608301918883526080840195600187528b5f52601b8d5260405f2094511684549160ff60a01b9051151560a01b16916affffffffffffffffffffff60a81b1617178355516001830155516002820155019051151560ff801983541691161790555f1461114157805f52601c85526110ff8460405f20612894565b604051928352848301526040820152817fa8d12dd5402d0aa9ccaa7a1346ef5a510e0c3ee938c13587bf17e59671b2ebee60603393a360015f55604051908152f35b805f52601d85526111558460405f20612894565b6110ff565b634e487b7160e01b5f52604160045260245ffd5b61118490863d881161062157610612818361257b565b508561103e565b60405162461bcd60e51b815260206004820152600d60248201526c696e76616c696420707269636560981b6044820152606490fd5b50620f42408310610fd6565b346102ff575f3660031901126102ff576020600f54604051908152f35b346102ff5760203660031901126102ff576004355f52601b60205260a060405f2080549060018101549060ff60036002830154920154169160ff60405194600180881b0381168652861c16151560208501526040840152606083015215156080820152f35b346102ff575f3660031901126102ff57602060405160648152f35b346102ff575f3660031901126102ff57602061128361297d565b604051908152f35b346102ff575f3660031901126102ff576040517f00000000000000000000000000000000000000000000000000000000000000006001600160a01b03168152602090f35b346102ff575f3660031901126102ff576020600a54604051908152f35b346102ff5760203660031901126102ff576004356001600160a01b038116908190036102ff575f526019602052602060ff60405f2054166040519015158152f35b346102ff575f3660031901126102ff576020601054604051908152f35b346102ff575f3660031901126102ff5760206040517f00000000000000000000000000000000000000000000000000000000000000008152f35b346102ff5760203660031901126102ff576004356001600160a01b038116908190036102ff575f526017602052602060405f2054604051908152f35b346102ff5760203660031901126102ff576004356001600160a01b0381168082036102ff575f52601760205260405f2054601860205260405f20549160ff601454165f146114145761041c61043991612a43565b506104395f61041c565b346102ff576020806003193601126102ff5760043561144160025f541415612753565b60025f908155818152601b835260409020805490926001600160a01b03918216330361154457600384019384549460ff86161561153257600291909101805460ff19969096169091555f9081905560405163a9059cbb60e01b815233600482015260248101869052928291849160449183917f0000000000000000000000000000000000000000000000000000000000000000165af1918215610628577fc4058ebc534b64ecb27b2d4eaa1904f98997ec18ebe6ada4117593dde89478cc92611515575b506040519384523393a360015f55005b61152b90823d841161062157610612818361257b565b5084611505565b604051631d4ecc5b60e01b8152600490fd5b6040516380f806d960e01b8152600490fd5b346102ff575f3660031901126102ff5761157460025f541415612753565b60025f5560ff60145416156116b457335f5260206019815260ff60405f2054166116a257335f526019815260405f20600160ff198254161790556115b733612a43565b9081156116a25760405163a9059cbb60e01b81523360048201526024810183905281816044815f6001600160a01b037f0000000000000000000000000000000000000000000000000000000000000000165af1801561062857611685575b5061161e612b10565b15611655577faec5552042c86cf299184db1394209cbf2715a57007f197eba93210eed5c92a6906040519283523392a25b60015f55005b7f1a31e733a172afcf46074b3106c17f0c298e226442682a03c1e99ce256139ec2906040519283523392a261164f565b61169b90823d841161062157610612818361257b565b5082611615565b6040516312d37ee560e31b8152600490fd5b60405163174b639360e11b8152600490fd5b346102ff575f3660031901126102ff576020601154604051908152f35b346102ff575f3660031901126102ff5760206040516127108152f35b346102ff575f3660031901126102ff576001600160a01b035f807f00000000000000000000000000000000000000000000000000000000000000008316338114806118e2575b7f00000000000000000000000000000000000000000000000000000000000000009085821633146118d3575b61177b848661280c565b156118985715611884575060206004916040519283809263011a412160e61b82525afa908115610628575f9161183f575b50926117bf602093926117f3959361280c565b60405163a9059cbb60e01b81526001600160a01b0390931660048401526024830152909283919082905f9082906044820190565b03927f0000000000000000000000000000000000000000000000000000000000000000165af180156106285761182557005b61183d9060203d60201161062157610612818361257b565b005b90506020929192813d60201161187c575b8161185d6020938361257b565b810103126102ff57519280841684036102ff57929091906117bf6117ac565b3d9150611850565b6117f3949150602093926117bf919361280c565b60405162461bcd60e51b81526020600482015260136024820152726e6f7468696e6720746f20776974686472617760681b6044820152606490fd5b9250601654925f601655611771565b9250601554925f601555611745565b346102ff5760203660031901126102ff5761190a6124ed565b6119126129ba565b61192c600260ff600654166119268161251f565b14612819565b6008546001600160a01b031633036119a95715611992575f80516020612b89833981519152604060015b61195f8161251f565b600160ff1960ff8160125416931680931760125560145416176014558151906119878161251f565b81525f6020820152a1005b5f80516020612b8983398151915260406002611956565b604051635d154fe160e11b8152600490fd5b346102ff575f3660031901126102ff57602060ff601454166040519015158152f35b346102ff575f3660031901126102ff576119f56129ba565b600654611a1860ff8216611a088161251f565b8015908115611b3c575b50612819565b604051630b37ae6760e11b815260089190911c63ffffffff1660048201526020816024815f7f00000000000000000000000000000000000000000000000000000000000000006001600160a01b03165af1908115610628575f91611b09575b506040815f80516020612b898339815191529260135560ff60065416611a9c8161251f565b611af0576007548110611ae95760015b905b611ab78261251f565b600160ff1960ff816012541694168094176012556014541617601455825191611adf8161251f565b82526020820152a1005b6002611aac565b6007548111611b025760015b90611aae565b6002611afc565b90506020813d602011611b34575b81611b246020938361257b565b810103126102ff57516040611a77565b3d9150611b17565b60019150611b498161251f565b1483611a12565b346102ff575f3660031901126102ff57602060ff600c54166040519015158152f35b346102ff575f3660031901126102ff57602060405160c88152f35b346102ff575f3660031901126102ff57611bab60025f541415612753565b60025f556001600160a01b037f000000000000000000000000000000000000000000000000000000000000000081811691338390036106895760ff6014541615611d8c57611bfe600a54600b549061280c565b908115611d52575f600a555f600b557f000000000000000000000000000000000000000000000000000000000000000016604051916370a0823160e01b83523060048401526020928381602481865afa908115610628575f91611d23575b50611c6d611c7691601554906127ff565b601654906127ff565b80821015611d1b5750905b81611c8c5760015f55005b60405163a9059cbb60e01b81526001600160a01b03949094166004850152602484018290528290849060449082905f905af1928315610628577f5757e4a3d2dfea3b68f1b5e5833245bfad5a8c02c11cc7f2b597ef89c4dfb45293611cfe575b50604051908152a2808080808061164f565b611d1490833d851161062157610612818361257b565b5084611cec565b905090611c81565b90508381813d8311611d4b575b611d3a818361257b565b810103126102ff5751611c6d611c5c565b503d611d30565b60405162461bcd60e51b81526020600482015260126024820152716e6f7468696e6720746f207265636c61696d60701b6044820152606490fd5b60405162461bcd60e51b815260206004820152600c60248201526b1b9bdd081c995cdbdb1d995960a21b6044820152606490fd5b346102ff575f3660031901126102ff576020601a54604051908152f35b346102ff575f3660031901126102ff57602060ff60145460081c166040519015158152f35b346102ff575f3660031901126102ff576020600e54604051908152f35b346102ff575f3660031901126102ff57602060ff6012541660405190611e448161251f565b8152f35b346102ff575f3660031901126102ff576040517f00000000000000000000000000000000000000000000000000000000000000006001600160a01b03168152602090f35b346102ff575f3660031901126102ff576020601554604051908152f35b346102ff575f3660031901126102ff576020601654604051908152f35b346102ff575f3660031901126102ff576020600d54604051908152f35b346102ff575f3660031901126102ff57611efb61297d565b620f424090810390811161043d57602090604051908152f35b346102ff5760203660031901126102ff576004356001600160a01b038116908190036102ff575f526018602052602060405f2054604051908152f35b346102ff575f3660031901126102ff576040517f00000000000000000000000000000000000000000000000000000000000000006001600160a01b03168152602090f35b346102ff57611fa2366124fc565b90611fb160025f541415612753565b60025f5560ff60145460081c1661094a57600454421015610939578015610927576040516323b872dd60e01b8152336004820152306024820152604481018290526020816064815f6001600160a01b037f0000000000000000000000000000000000000000000000000000000000000000165af18015610628576124ce575b5060c8810281810460c80361043d5761271090049261207d612710612057600954856127ce565b046120726120698261037089886127ff565b9660155461280c565b60155560165461280c565b6016555f935f61208b61297d565b93620f42408581031161043d57919590945f6080526001955b620f42408710806124c2575b806124b9575b156123a95784156123a0579691601d5b875f5260205260405f20915f5b8354811080612397575b1561236b576120ec818561286b565b9190549160039b81848e93841b1c5f52601b60205260ff60405f209e8f01541615612349578d8b156123595760010154620f424003620f4240811161043d578c620f42400310155b156123495760018e60028101545f60a052808c105f1461234157508a60a0525b8c15612339570154620f424003620f4240811161043d57915b60a051620f424060a0510204620f42401460a05115171561043d5761219a8f93620f424060a051026127e1565b928c1561230c57335f52601760205260405f206121b885825461280c565b9055600d6121c785825461280c565b90555b8c156122d257546001600160a01b03165f90815260186020526040902080546121f490859061280c565b9055600e61220384825461280c565b90555b60a05160a05160011b0460021460a05115171561043d5782601160a05160011b8154906122329161280c565b905561223d9161280c565b9660a05161224a9161280c565b9860a051612257916127ff565b9d60a05160028201549061226a916127ff565b80600283015515957f36a54e61f475a84cd4a5c3b403be29e6101b05ec843b61fb97c3e123ff59b3f4926040926122b9986122c2575b5082519460a0518652602086015233951b1c92a361285d565b989391986120d3565b8601805460ff191690555f6122a0565b546001600160a01b03165f90815260176020526040902080546122f690859061280c565b9055600d61230584825461280c565b9055612206565b335f52601860205260405f2061232385825461280c565b9055600e61233285825461280c565b90556121ca565b01549161216d565b60a052612154565b5094969b50506122b9915061285d565b60018d620f4240039101541015612134565b509690979293915061237e60805161285d565b608052612710810180911161043d5795909296916120a4565b508415156120dd565b9691601c6120c6565b92939150828780612412575b50508210610841576020926123c861297d565b9060405192151583528483015282604083015260608201527fda8adcbc4913e5fc8423357e5ad08a1f4d03b6b4bdf4231f9290b5289959828f60803392a260015f55604051908152f35b61247391945061242c612425828661292b565b809661280c565b94841561247d5761243f82600f5461280c565b600f5561244e81600d5461280c565b600d55335f52601760205261246860405f2091825461280c565b90555b60115461280c565b60115584806123b5565b6124898260105461280c565b60105561249881600e5461280c565b600e55335f5260186020526124b260405f2091825461280c565b905561246b565b508715156120b6565b506014608051106120b0565b6124e69060203d60201161062157610612818361257b565b5083612030565b6004359081151582036102ff57565b60609060031901126102ff5760043580151581036102ff57906024359060443590565b6004111561252957565b634e487b7160e01b5f52602160045260245ffd5b91908251928382525f5b848110612567575050825f602080949584010152601f8019910116010190565b602081830181015184830182015201612547565b90601f8019910116810190811067ffffffffffffffff82111761115a57604052565b604051905f60018054918260011c60018416928315612665575b6020948583108514610da457828852879490811561264557506001146125e8575b50506125e69250038361257b565b565b9093915060015f527fb10e2d527612073b26eecdfd717e6a320cf44b4afac2b0732d9fcbe2b7fa0cf6935f915b81831061262d5750506125e693508201015f806125d8565b85548884018501529485019487945091830191612615565b9150506125e694925060ff191682840152151560051b8201015f806125d8565b90607f16906125b7565b604051905f600254906001908260011c60018416928315612716575b6020948583108514610da457828852879490811561264557506001146126b95750506125e69250038361257b565b9093915060025f527f405787fa12a823e0f2b7631cc41b3ba8828b3321ca811111fa75cd3aa3bb5ace935f915b8183106126fe5750506125e693508201015f806125d8565b855488840185015294850194879450918301916126e6565b90607f169061268b565b9081518082526020808093019301915f5b82811061273f575050505090565b835185529381019392810192600101612731565b1561275a57565b60405162461bcd60e51b815260206004820152601f60248201527f5265656e7472616e637947756172643a207265656e7472616e742063616c6c006044820152606490fd5b908160209103126102ff575180151581036102ff5790565b906127109182810292818404149015171561043d57565b8181029291811591840414171561043d57565b81156127eb570490565b634e487b7160e01b5f52601260045260245ffd5b9190820391821161043d57565b9190820180921161043d57565b1561282057565b60405162461bcd60e51b815260206004820152601560248201527477726f6e67207265736f6c7574696f6e207479706560581b6044820152606490fd5b5f19811461043d5760010190565b8054821015612880575f5260205f2001905f90565b634e487b7160e01b5f52603260045260245ffd5b80546801000000000000000081101561115a576128b69160018201815561286b565b819291549060031b91821b915f19901b1916179055565b67ffffffffffffffff811161115a5760051b60200190565b906128ef826128cd565b6128fc604051918261257b565b828152809261290d601f19916128cd565b0190602036910137565b80518210156128805760209160051b010190565b1561295a57600d54801561295657906103da61294a82612953946127ce565b91600f5461280c565b90565b5090565b600e54801561295657906103da61297482612953946127ce565b9160105461280c565b600f5461298d601054809261280c565b80156129b157620f42409182810292818404149015171561043d57612953916127e1565b50506207a12090565b60ff60145416612a0b5760055442106129cf57565b60405162461bcd60e51b8152602060048201526014602482015273746f6f206561726c7920746f207265736f6c766560601b6044820152606490fd5b60405162461bcd60e51b815260206004820152601060248201526f185b1c9958591e481c995cdbdb1d995960821b6044820152606490fd5b60018060a01b03165f52601760205260405f2054601860205260405f205460ff60125416612a708161251f565b60038114612ad857600190612a848161251f565b03612acb5750600d54600e545b15612ab6578115612ab057612aab612953926011546127ce565b6127e1565b50505f90565b8115612ab057612aab612953926011546127ce565b9050600e54600d54612a91565b50612ae8600d54600e549061280c565b908115612b095761295392612b03612aab926011549261280c565b906127ce565b5050505f90565b60ff60125416612b1f8161251f565b60018114612b435780612b3360029261251f565b14612b3c575f90565b600d541590565b50600e541590565b15612b6c57806103da612b6361295393600f546127ce565b91600d5461280c565b806103da612b7f612953936010546127ce565b91600e5461280c56fecbbe35de088a5a787855818a0fda296aeb95f616e7b99c7dcb0bf96b5697e22ba2646970667358221220cedd50edc58743f9d65bd431d5accdcbc6f27aa886dd9ccc21932bf284196d1664736f6c63430008180033","linkReferences":{}},"methodIdentifiers":{"FEE_DENOM()":"4886c675","MAX_CREATOR_FEE()":"8f9d0e6d","PLATFORM_FEE()":"34fbc9a1","PRICE_SCALE()":"c33f59d3","aggregator()":"245a7bfc","bootstrap(uint256,uint256)":"e4d2e847","bootstrapNo()":"c866222f","bootstrapYes()":"764cfef1","bootstrapped()":"35142c8c","buy(bool,uint256,uint256)":"01a9812c","cancelOrder(uint256)":"514fcac7","claim()":"4e71d92d","createdAt()":"cf09e0d0","creator()":"02d05d3f","creatorFeesAccrued()":"21ae7307","emergencyPaused()":"27c830a9","factory()":"c45a0155","getMarketSummary()":"ca414882","getNoPrice()":"12b01b16","getOrderBook(uint256)":"d368f976","getQuote(bool,uint256)":"e8256485","getUserPosition(address)":"5b7c2dad","getYesPrice()":"8779086f","hasClaimed(address)":"73b2e80e","marketId()":"6ed71ede","nextOrderId()":"2a58b330","noBalance(address)":"0ffa9bed","noReserve()":"72a9fa6e","noShares()":"27c7ff61","oracle()":"7dc0d1d0","orders(uint256)":"a85c38ef","outcome()":"27793f87","params()":"cff0ab96","placeLimitOrder(bool,uint256,uint256)":"b92d8f91","platformFeesAccrued()":"22163b86","reclaimBootstrap()":"3137b1e3","resolveInvalid()":"f77c1877","resolveManual(bool)":"3fbf5720","resolveWithOracle()":"3cb8c8f4","resolved()":"3f6fa655","sell(bool,uint256,uint256)":"de254659","setEmergencyPause(bool)":"d8d1a657","settlementPrice()":"f348e8b2","totalCollateral()":"4ac8eb5f","usdh()":"cb035177","withdrawFees()":"476343ee","yesBalance(address)":"5b883917","yesReserve()":"b2670d74","yesShares()":"16953f02"},"id":17}