{"abi":[{"type":"constructor","inputs":[{"name":"_hyperCoreOracle","type":"address","internalType":"address"}],"stateMutability":"nonpayable"},{"type":"function","name":"DEVIATION_DENOM","inputs":[],"outputs":[{"name":"","type":"uint256","internalType":"uint256"}],"stateMutability":"view"},{"type":"function","name":"HISTORY_SIZE","inputs":[],"outputs":[{"name":"","type":"uint256","internalType":"uint256"}],"stateMutability":"view"},{"type":"function","name":"MAX_DEVIATION","inputs":[],"outputs":[{"name":"","type":"uint256","internalType":"uint256"}],"stateMutability":"view"},{"type":"function","name":"MAX_PRICE_AGE","inputs":[],"outputs":[{"name":"","type":"uint256","internalType":"uint256"}],"stateMutability":"view"},{"type":"function","name":"addFeeder","inputs":[{"name":"feeder","type":"address","internalType":"address"}],"outputs":[],"stateMutability":"nonpayable"},{"type":"function","name":"checkPrice","inputs":[{"name":"assetIndex","type":"uint32","internalType":"uint32"}],"outputs":[{"name":"ok","type":"bool","internalType":"bool"},{"name":"primaryPrice","type":"uint256","internalType":"uint256"},{"name":"secondaryPrice","type":"uint256","internalType":"uint256"},{"name":"deviationBps","type":"uint256","internalType":"uint256"},{"name":"reason","type":"string","internalType":"string"}],"stateMutability":"view"},{"type":"function","name":"confirmPrice","inputs":[{"name":"assetIndex","type":"uint32","internalType":"uint32"}],"outputs":[{"name":"confirmed","type":"uint256","internalType":"uint256"}],"stateMutability":"nonpayable"},{"type":"function","name":"feeders","inputs":[{"name":"","type":"address","internalType":"address"}],"outputs":[{"name":"","type":"bool","internalType":"bool"}],"stateMutability":"view"},{"type":"function","name":"getPriceHistory","inputs":[{"name":"assetIndex","type":"uint32","internalType":"uint32"}],"outputs":[{"name":"","type":"uint256[10]","internalType":"uint256[10]"}],"stateMutability":"view"},{"type":"function","name":"historyIndex","inputs":[{"name":"","type":"uint32","internalType":"uint32"}],"outputs":[{"name":"","type":"uint8","internalType":"uint8"}],"stateMutability":"view"},{"type":"function","name":"hyperCoreOracle","inputs":[],"outputs":[{"name":"","type":"address","internalType":"contract IHyperCoreOracle"}],"stateMutability":"view"},{"type":"function","name":"owner","inputs":[],"outputs":[{"name":"","type":"address","internalType":"address"}],"stateMutability":"view"},{"type":"function","name":"priceHistory","inputs":[{"name":"","type":"uint32","internalType":"uint32"},{"name":"","type":"uint256","internalType":"uint256"}],"outputs":[{"name":"","type":"uint256","internalType":"uint256"}],"stateMutability":"view"},{"type":"function","name":"pushPrice","inputs":[{"name":"assetIndex","type":"uint32","internalType":"uint32"},{"name":"price","type":"uint256","internalType":"uint256"},{"name":"source","type":"string","internalType":"string"}],"outputs":[],"stateMutability":"nonpayable"},{"type":"function","name":"pushPriceBatch","inputs":[{"name":"indices","type":"uint32[]","internalType":"uint32[]"},{"name":"prices","type":"uint256[]","internalType":"uint256[]"},{"name":"source","type":"string","internalType":"string"}],"outputs":[],"stateMutability":"nonpayable"},{"type":"function","name":"removeFeeder","inputs":[{"name":"feeder","type":"address","internalType":"address"}],"outputs":[],"stateMutability":"nonpayable"},{"type":"function","name":"secondaryPrices","inputs":[{"name":"","type":"uint32","internalType":"uint32"}],"outputs":[{"name":"price","type":"uint256","internalType":"uint256"},{"name":"updatedAt","type":"uint256","internalType":"uint256"},{"name":"source","type":"string","internalType":"string"}],"stateMutability":"view"},{"type":"function","name":"transferOwnership","inputs":[{"name":"newOwner","type":"address","internalType":"address"}],"outputs":[],"stateMutability":"nonpayable"},{"type":"event","name":"CircuitBreakerTriggered","inputs":[{"name":"assetIndex","type":"uint32","indexed":true,"internalType":"uint32"},{"name":"reason","type":"string","indexed":false,"internalType":"string"}],"anonymous":false},{"type":"event","name":"FeederAdded","inputs":[{"name":"feeder","type":"address","indexed":false,"internalType":"address"}],"anonymous":false},{"type":"event","name":"FeederRemoved","inputs":[{"name":"feeder","type":"address","indexed":false,"internalType":"address"}],"anonymous":false},{"type":"event","name":"PriceConfirmed","inputs":[{"name":"assetIndex","type":"uint32","indexed":true,"internalType":"uint32"},{"name":"confirmedPrice","type":"uint256","indexed":false,"internalType":"uint256"},{"name":"deviationBps","type":"uint256","indexed":false,"internalType":"uint256"}],"anonymous":false},{"type":"event","name":"PriceDeviation","inputs":[{"name":"assetIndex","type":"uint32","indexed":true,"internalType":"uint32"},{"name":"primaryPrice","type":"uint256","indexed":false,"internalType":"uint256"},{"name":"secondaryPrice","type":"uint256","indexed":false,"internalType":"uint256"},{"name":"deviationBps","type":"uint256","indexed":false,"internalType":"uint256"},{"name":"resolutionBlocked","type":"bool","indexed":false,"internalType":"bool"}],"anonymous":false},{"type":"event","name":"PricePushed","inputs":[{"name":"assetIndex","type":"uint32","indexed":true,"internalType":"uint32"},{"name":"price","type":"uint256","indexed":false,"internalType":"uint256"},{"name":"source","type":"string","indexed":false,"internalType":"string"},{"name":"feeder","type":"address","indexed":false,"internalType":"address"}],"anonymous":false},{"type":"error","name":"NoSecondaryPrice","inputs":[{"name":"assetIndex","type":"uint32","internalType":"uint32"}]},{"type":"error","name":"NotFeeder","inputs":[]},{"type":"error","name":"NotOwner","inputs":[]},{"type":"error","name":"PriceDeviationTooHigh","inputs":[{"name":"assetIndex","type":"uint32","internalType":"uint32"},{"name":"deviationBps","type":"uint256","internalType":"uint256"},{"name":"maxBps","type":"uint256","internalType":"uint256"}]},{"type":"error","name":"PriceTooStale","inputs":[{"name":"assetIndex","type":"uint32","internalType":"uint32"},{"name":"age","type":"uint256","internalType":"uint256"},{"name":"maxAge","type":"uint256","internalType":"uint256"}]},{"type":"error","name":"PrimaryPriceZero","inputs":[{"name":"assetIndex","type":"uint32","internalType":"uint32"}]},{"type":"error","name":"SecondaryPriceZero","inputs":[{"name":"assetIndex","type":"uint32","internalType":"uint32"}]}],"bytecode":{"object":"0x60a0346100a257601f6117a638819003918201601f19168301916001600160401b038311848410176100a6578084926020946040528339810103126100a257516001600160a01b038116908190036100a2573360018060a01b03196001541617600155335f52600260205260405f20600160ff198254161790556080526040516116eb90816100bb82396080518181816105430152818161087801526111bd0152f35b5f80fd5b634e487b7160e01b5f52604160045260245ffdfe6080806040526004361015610012575f80fd5b5f3560e01c9081630aa3166114610e22575080630af8f0bc14610bb85780631126d46714610b9c578063155fb6ae14610b28578063166f5cce146108385780632fd8fc23146107e65780635855fbb2146107ae578063652c462e14610793578063832a49ab146107325780638da5cb5b1461070a5780638e1207dc146106995780638e5970cb146105fb578063993e16b9146105a95780639d7f7e861461058d578063b05f233a14610572578063d2aedc131461052e578063edf6dd911461013b5763f2fde38b146100e2575f80fd5b34610137576020366003190112610137576004356001600160a01b0381811691829003610137576001549081163303610125576001600160a01b03191617600155005b6040516330cd747160e01b8152600490fd5b5f80fd5b346101375760603660031901126101375760043567ffffffffffffffff81116101375761016c90369060040161105b565b9060243567ffffffffffffffff81116101375761018d90369060040161105b565b60449391933567ffffffffffffffff8111610137576101b0903690600401610e73565b919092335f52600260205260ff60405f2054161580610519575b610507578181036104d05760148111610498575f5b8181106101e857005b60ff600a816102808a61027b8b63ffffffff61024e61022d8a8c6102478f8061021e6102168680948e61154e565b35151561108c565b8761023261022d84878d61154e565b61155e565b165f5260046020528c60405f2054169a61154e565b359561154e565b165f5260036020526102638360405f20611038565b90919082549060031b91821b915f19901b1916179055565b6110cf565b16061663ffffffff61029661022d84868b61154e565b165f52600460205260405f209060ff198254161790556102b781848961154e565b35604051906102c582610f1f565b8152602081014281526102d9368789611111565b906040830191825263ffffffff6102f461022d86888d61154e565b165f525f60205260405f20925183555160018301555180519067ffffffffffffffff8211610484576103296002840154610ee7565b601f8111610440575b50602090601f83116001146103d057918060029260019695945f926103c5575b50505f19600383901b1c191690851b179101555b61037461022d82858a61154e565b7f9650422b888c84e98c477fccdcd66d70677a30cdc3ad9caf7ef5c1ff5498d7f963ffffffff6103a584888d61154e565b35926103bc60405192839216948a8c339285611147565b0390a2016101df565b015190508c80610352565b90600284015f5260205f20915f5b601f1985168110610428575092600292600196959492879383601f19811610610410575b505050811b01910155610366565b01515f1960f88460031b161c191690558c8080610402565b818301518455600190930192602092830192016103de565b600284015f5260205f20601f840160051c81016020851061047d575b601f830160051c82018110610472575050610332565b5f815560010161045c565b508061045c565b634e487b7160e01b5f52604160045260245ffd5b60405162461bcd60e51b815260206004820152601060248201526f0dac2f040646040e0cae440c4c2e8c6d60831b6044820152606490fd5b60405162461bcd60e51b815260206004820152600f60248201526e0d8cadccee8d040dad2e6dac2e8c6d608b1b6044820152606490fd5b60405163fe6c39f760e01b8152600490fd5b506001546001600160a01b03163314156101ca565b34610137575f366003190112610137576040517f00000000000000000000000000000000000000000000000000000000000000006001600160a01b03168152602090f35b34610137575f36600319011261013757602060405160648152f35b34610137575f36600319011261013757602060405161012c8152f35b34610137576040366003190112610137576105c2610e60565b63ffffffff60243591165f52600360205260405f20600a821015610137576020916105ec91611038565b90549060031b1c604051908152f35b346101375760208060031936011261013757610615610e60565b9063ffffffff6040519261062884610f3b565b6101408094369037165f52600360205260405f206040519081835f915b600a8310610682575050505061065a81610f3b565b604051915f835b600a821061066d578585f35b82806001928651815201940191019092610661565b600191829185548152019301910190918490610645565b34610137576020366003190112610137576004356001600160a01b038181169182900361013757600154163303610125576020817fb0bc40f69e0e5f4bb32517529a6b4eb76c452372c18fe559934d27a4a8f88dce925f526002825260405f2060ff198154169055604051908152a1005b34610137575f366003190112610137576001546040516001600160a01b039091168152602090f35b346101375760203660031901126101375763ffffffff610750610e60565b165f525f60205260405f20805461078f610771600260018501549401610f96565b60405193849384526020840152606060408401526060830190610ec2565b0390f35b34610137575f366003190112610137576020604051600a8152f35b346101375760203660031901126101375763ffffffff6107cc610e60565b165f526004602052602060ff60405f205416604051908152f35b346101375760203660031901126101375761078f61080a610805610e60565b611191565b916040959395519586951515865260208601526040850152606084015260a0608084015260a0830190610ec2565b346101375760208060031936011261013757610852610e60565b60405163a066fae960e01b815263ffffffff9190911660048201819052602491838184817f00000000000000000000000000000000000000000000000000000000000000006001600160a01b03165afa908115610b1d575f91610af0575b508015610ada57815f525f845260405f2092604051936108cf85610f1f565b805485526108ea600260018301549288880193845201610f96565b6040860152845115610ac357845115610aac57610908905142611184565b61012c90818111610a3957505061092084518361156f565b93606485116109825751820180921161096f575060407fee60728f4e6a5c464bee86b0ef071eced8e4d543021cb46664b54f2c4abef1669160011c9381519085825286820152a2604051908152f35b634e487b7160e01b5f9081526011600452fd5b7f4beb39361a2d6a648c8f863862e7f029084683d9e37deb6cdab06dad4bb09c58606087867f1aa50a1bfd7116cacea8ff28712aa17806b78dd5084b5c8a517ea361c43d7112608060649a9883975160405191825285820152896040820152600186820152a26018604051918083528201527f707269636520646576696174696f6e20746f6f206869676800000000000000006040820152a2604051926319ed9ed560e11b84526004840152820152816044820152fd5b606493508492837f4beb39361a2d6a648c8f863862e7f029084683d9e37deb6cdab06dad4bb09c5860608a601560405191808352820152747365636f6e64617279207072696365207374616c6560581b6040820152a2604051936305b1a30f60e11b855260048501528301526044820152fd5b50604051630b23f84160e21b815260048101849052fd5b5060405163481d577160e11b815260048101849052fd5b5060405190636920dbef60e01b82526004820152fd5b90508381813d8311610b16575b610b078183610f74565b810103126101375751846108b0565b503d610afd565b6040513d5f823e3d90fd5b34610137576020366003190112610137576004356001600160a01b038181169182900361013757600154163303610125576020817f53813a21bbdd00f3df18b895e7321dea1615b185cccbe44f4a669c3f7a96dfa7925f526002825260405f20600160ff19825416179055604051908152a1005b34610137575f3660031901126101375760206040516127108152f35b3461013757606036600319011261013757610bd1610e60565b67ffffffffffffffff60243560443582811161013757610bf5903690600401610e73565b91335f526020946002865260ff60405f2054161580610e0d575b6105075763ffffffff90610c2483151561108c565b1693845f526004865260ff600a81610c518160405f20541660038b5261027b876102638360405f20611038565b160616855f526004875260405f209060ff1982541617905560405190610c7682610f1f565b8282528682014281526002610c8c368888611111565b9360408101948552885f525f8a5260405f2090518155600192518382015501925197885192831161048457610cc18454610ee7565b601f8111610dc7575b5080601f8411600114610d3b575091808092610d2b9695947f9650422b888c84e98c477fccdcd66d70677a30cdc3ad9caf7ef5c1ff5498d7f99a9b5f94610d30575b50501b915f199060031b1c19161790555b604051938493339285611147565b0390a2005b015192508b80610d0c565b91939498601f198416865f52835f20935f905b828210610db0575050917f9650422b888c84e98c477fccdcd66d70677a30cdc3ad9caf7ef5c1ff5498d7f9999a95939185610d2b98969410610d98575b505050811b019055610d1d565b01515f1960f88460031b161c19169055898080610d8b565b808886978294978701518155019601940190610d4e565b845f52815f20601f850160051c810191838610610e03575b601f0160051c019083905b828110610df8575050610cca565b5f8155018390610dea565b9091508190610ddf565b506001546001600160a01b0316331415610c0f565b34610137576020366003190112610137576004356001600160a01b0381169190829003610137576020915f526002825260ff60405f20541615158152f35b6004359063ffffffff8216820361013757565b9181601f840112156101375782359167ffffffffffffffff8311610137576020838186019501011161013757565b5f5b838110610eb25750505f910152565b8181015183820152602001610ea3565b90602091610edb81518092818552858086019101610ea1565b601f01601f1916010190565b90600182811c92168015610f15575b6020831014610f0157565b634e487b7160e01b5f52602260045260245ffd5b91607f1691610ef6565b6060810190811067ffffffffffffffff82111761048457604052565b610140810190811067ffffffffffffffff82111761048457604052565b6040810190811067ffffffffffffffff82111761048457604052565b90601f8019910116810190811067ffffffffffffffff82111761048457604052565b9060405191825f8254610fa881610ee7565b908184526020946001916001811690815f146110165750600114610fd8575b505050610fd692500383610f74565b565b5f90815285812095935091905b818310610ffe575050610fd693508201015f8080610fc7565b85548884018501529485019487945091830191610fe5565b92505050610fd694925060ff191682840152151560051b8201015f8080610fc7565b600a8210156110475701905f90565b634e487b7160e01b5f52603260045260245ffd5b9181601f840112156101375782359167ffffffffffffffff8311610137576020808501948460051b01011161013757565b1561109357565b60405162461bcd60e51b815260206004820152601460248201527370726963652063616e6e6f74206265207a65726f60601b6044820152606490fd5b60ff60019116019060ff82116110e157565b634e487b7160e01b5f52601160045260245ffd5b67ffffffffffffffff811161048457601f01601f191660200190565b92919261111d826110f5565b9161112b6040519384610f74565b829481845281830111610137578281602093845f960137010152565b9280604093608093979697865260606020870152816060870152838601375f828286010152601f80199101168301019360018060a01b0316910152565b919082039182116110e157565b6040805163a066fae960e01b815263ffffffff90921660048084018290529193602491602090818685817f00000000000000000000000000000000000000000000000000000000000000006001600160a01b03165afa958615611544575f96611515575b5085156114da575f525f8152855f209386519361121185610f1f565b8554855260019161122f6002600189015498868901998a5201610f96565b89870152855196871561149657611247905142611184565b61012c8111611417575061125c86518961156f565b95606487116112875750505050616f6b60f01b600196519161127d83610f58565b6002835282015290565b90919394959650979697519661129c876115f4565b91606493606495865f975b6113ea57506112b5876110f5565b956112c285519788610f74565b8787526112ce886110f5565b97838a890199601f1901368b375b611365575b50505050509260399261134161131d97969361135d965198856903232bb34b0ba34b7b7160b51b8b978801528251928391602a89019101610ea1565b8401916a010313839901f1036b0bc160ad1b602a8401525180936035840190610ea1565b01632062707360e01b6035820152036019810185520183610f74565b5f9493929190565b8082156113e45780156113d2575f190191600a91603083830681018091116113c0578a518510156113ae5760f81b6001600160f81b0319165f1a908a01601f01530490836112dc565b85603289634e487b7160e01b5f52525ffd5b85601189634e487b7160e01b5f52525ffd5b83601187634e487b7160e01b5f52525ffd5b506112e1565b9591965f198114611404578701969195600a9004806112a7565b50634e487b7160e01b5f90815260118452fd5b979891505061148d939550603c92915061143561146f9551976115f4565b905194827f7365636f6e64617279207072696365207374616c653a2000000000000000000087948501528251928391603786019101610ea1565b8101641cc81bdb1960da1b603782015203601c810184520182610f74565b5f9392915f9190565b505096515f9750879550859450917f6e6f207365636f6e64617279207072696365207075736865642079657400000091506114d083610f58565b601d835282015290565b5094515f95869550859450849350747072696d617279207072696365206973207a65726f60581b9061150b83610f58565b6015835282015290565b9095508181813d831161153d575b61152d8183610f74565b810103126101375751945f6111f5565b503d611523565b87513d5f823e3d90fd5b91908110156110475760051b0190565b3563ffffffff811681036101375790565b801580156115ec575b6115e4578181119182156115d4576115908183611184565b925b156115cc5750905b612710908181029181830414901517156110e15781156115b8570490565b634e487b7160e01b5f52601260045260245ffd5b90509061159a565b6115de8282611184565b92611592565b505061271090565b508115611578565b8015611697575f81805b611680575061160c816110f5565b9061161a6040519283610f74565b808252601f19611629826110f5565b013660208401375b8083156116795780156110e1575f190192600a91603083830681018091116110e15784518610156110475760f81b6001600160f81b0319165f1a908401601f01530491611631565b5050905090565b905f1981146110e1576001600a91019104806115fe565b506040516116a481610f58565b60018152600360fc1b60208201529056fea26469706673582212205fac22e61961da79e56a135672cb53e25f77a3d32154d6b29ec5c4556220387264736f6c63430008180033","linkReferences":{}},"methodIdentifiers":{"DEVIATION_DENOM()":"1126d467","HISTORY_SIZE()":"652c462e","MAX_DEVIATION()":"b05f233a","MAX_PRICE_AGE()":"9d7f7e86","addFeeder(address)":"155fb6ae","checkPrice(uint32)":"2fd8fc23","confirmPrice(uint32)":"166f5cce","feeders(address)":"0aa31661","getPriceHistory(uint32)":"8e5970cb","historyIndex(uint32)":"5855fbb2","hyperCoreOracle()":"d2aedc13","owner()":"8da5cb5b","priceHistory(uint32,uint256)":"993e16b9","pushPrice(uint32,uint256,string)":"0af8f0bc","pushPriceBatch(uint32[],uint256[],string)":"edf6dd91","removeFeeder(address)":"8e1207dc","secondaryPrices(uint32)":"832a49ab","transferOwnership(address)":"f2fde38b"},"id":18}