{"abi":[{"type":"constructor","inputs":[],"stateMutability":"nonpayable"},{"type":"function","name":"FAUCET_AMOUNT","inputs":[],"outputs":[{"name":"","type":"uint256","internalType":"uint256"}],"stateMutability":"view"},{"type":"function","name":"FAUCET_COOLDOWN","inputs":[],"outputs":[{"name":"","type":"uint256","internalType":"uint256"}],"stateMutability":"view"},{"type":"function","name":"allowance","inputs":[{"name":"","type":"address","internalType":"address"},{"name":"","type":"address","internalType":"address"}],"outputs":[{"name":"","type":"uint256","internalType":"uint256"}],"stateMutability":"view"},{"type":"function","name":"approve","inputs":[{"name":"spender","type":"address","internalType":"address"},{"name":"amount","type":"uint256","internalType":"uint256"}],"outputs":[{"name":"","type":"bool","internalType":"bool"}],"stateMutability":"nonpayable"},{"type":"function","name":"balanceOf","inputs":[{"name":"","type":"address","internalType":"address"}],"outputs":[{"name":"","type":"uint256","internalType":"uint256"}],"stateMutability":"view"},{"type":"function","name":"decimals","inputs":[],"outputs":[{"name":"","type":"uint8","internalType":"uint8"}],"stateMutability":"view"},{"type":"function","name":"faucet","inputs":[],"outputs":[],"stateMutability":"nonpayable"},{"type":"function","name":"lastFaucet","inputs":[{"name":"","type":"address","internalType":"address"}],"outputs":[{"name":"","type":"uint256","internalType":"uint256"}],"stateMutability":"view"},{"type":"function","name":"mint","inputs":[{"name":"to","type":"address","internalType":"address"},{"name":"amount","type":"uint256","internalType":"uint256"}],"outputs":[],"stateMutability":"nonpayable"},{"type":"function","name":"name","inputs":[],"outputs":[{"name":"","type":"string","internalType":"string"}],"stateMutability":"view"},{"type":"function","name":"owner","inputs":[],"outputs":[{"name":"","type":"address","internalType":"address"}],"stateMutability":"view"},{"type":"function","name":"symbol","inputs":[],"outputs":[{"name":"","type":"string","internalType":"string"}],"stateMutability":"view"},{"type":"function","name":"totalSupply","inputs":[],"outputs":[{"name":"","type":"uint256","internalType":"uint256"}],"stateMutability":"view"},{"type":"function","name":"transfer","inputs":[{"name":"to","type":"address","internalType":"address"},{"name":"amount","type":"uint256","internalType":"uint256"}],"outputs":[{"name":"","type":"bool","internalType":"bool"}],"stateMutability":"nonpayable"},{"type":"function","name":"transferFrom","inputs":[{"name":"from","type":"address","internalType":"address"},{"name":"to","type":"address","internalType":"address"},{"name":"amount","type":"uint256","internalType":"uint256"}],"outputs":[{"name":"","type":"bool","internalType":"bool"}],"stateMutability":"nonpayable"},{"type":"event","name":"Approval","inputs":[{"name":"owner","type":"address","indexed":true,"internalType":"address"},{"name":"spender","type":"address","indexed":true,"internalType":"address"},{"name":"value","type":"uint256","indexed":false,"internalType":"uint256"}],"anonymous":false},{"type":"event","name":"Transfer","inputs":[{"name":"from","type":"address","indexed":true,"internalType":"address"},{"name":"to","type":"address","indexed":true,"internalType":"address"},{"name":"value","type":"uint256","indexed":false,"internalType":"uint256"}],"anonymous":false}],"bytecode":{"object":"0x60806040523461017c576100135f54610180565b601f8111610135575b507f5553442048797065726c69717569642028546573746e657429000000000000325f556001805461004d90610180565b601f81116100ee575b6008630aaa688960e31b01600155600280546001600160a81b0319163360081b610100600160a81b0316176006179055600354610092906101b8565b600355335f52600460205260405f206100ab81546101b8565b905560405164e8d4a5100081525f7fddf252ad1be2c89b69c2b068fc378daa952ba7f163c4a11628f55a4df523b3ef60203393a36040516108d490816101df8239f35b60015f52601f0160051c7fb10e2d527612073b26eecdfd717e6a320cf44b4afac2b0732d9fcbe2b7fa0cf6908101905b81811061012b5750610056565b5f8155820161011e565b5f8052601f0160051c7f290decd9548b62a8d60345a988386fc84ba6bc95484008f6362f93160ef3e563908101905b818110610171575061001c565b5f8155600101610164565b5f80fd5b90600182811c921680156101ae575b602083101461019a57565b634e487b7160e01b5f52602260045260245ffd5b91607f169161018f565b9064e8d4a5100082018092116101ca57565b634e487b7160e01b5f52601160045260245ffdfe6080604081815260049182361015610015575f80fd5b5f3560e01c90816306fdde031461066c57508063095ea7b3146105fe57806318160ddd146105e057806323b872dd14610513578063313ce567146104f257806340c10f19146104395780634799e2121461040257806370a08231146103cd57806376697640146103ae5780637d1d5d19146103925780638da5cb5b1461036657806395d89b4114610244578063a9059cbb14610214578063dd62ed3e146101cb5763de5f72fd146100c4575f80fd5b346101c7575f3660031901126101c757335f526006602052805f2054610e1081018091116101b457421061018357335f52600660205242815f2055600354916402540be4009283810180911161017057600355335f5280602052815f2080549184830180931161015d575055519081525f7fddf252ad1be2c89b69c2b068fc378daa952ba7f163c4a11628f55a4df523b3ef60203393a3005b601190634e487b7160e01b5f525260245ffd5b601182634e487b7160e01b5f525260245ffd5b906020606492519162461bcd60e51b8352820152600b60248201526a3bb0b4ba1018903437bab960a91b6044820152fd5b601183634e487b7160e01b5f525260245ffd5b5f80fd5b50346101c757806003193601126101c7576020906101e761078a565b6101ef6107a0565b9060018060a01b038091165f5260058452825f2091165f528252805f20549051908152f35b50346101c757806003193601126101c75760209061023d61023361078a565b60243590336107e4565b5160018152f35b50346101c7575f3660031901126101c7578051905f60018054908160011c906001831692831561035c575b60209384841081146103495783885290811561032d57506001146102d7575b505050829003601f01601f191682019267ffffffffffffffff8411838510176102c457508291826102c0925282610743565b0390f35b604190634e487b7160e01b5f525260245ffd5b60015f908152929350837fb10e2d527612073b26eecdfd717e6a320cf44b4afac2b0732d9fcbe2b7fa0cf65b83851061031957505050508301015f808061028e565b805488860183015293019284908201610303565b60ff1916878501525050151560051b84010190505f808061028e565b602289634e487b7160e01b5f525260245ffd5b91607f169161026f565b50346101c7575f3660031901126101c757600254905160089190911c6001600160a01b03168152602090f35b50346101c7575f3660031901126101c75760209051610e108152f35b50346101c7575f3660031901126101c757602090516402540be4008152f35b50346101c75760203660031901126101c7576020916001600160a01b036103f261078a565b165f528252805f20549051908152f35b50346101c75760203660031901126101c7576020906001600160a01b0361042761078a565b165f5260068252805f20549051908152f35b5090346101c757816003193601126101c75761045361078a565b600254602435916001600160a01b039160081c821633036104c35782857fddf252ad1be2c89b69c2b068fc378daa952ba7f163c4a11628f55a4df523b3ef936020936104a25f976003546107d7565b600355169586865283528085206104ba8382546107d7565b905551908152a3005b845162461bcd60e51b815260208186015260096024820152683737ba1037bbb732b960b91b6044820152606490fd5b50346101c7575f3660031901126101c75760209060ff600254169051908152f35b50346101c75760603660031901126101c75761052d61078a565b906105366107a0565b6044359060018060a01b03841693845f5260209460058652845f20335f528652845f2054965f198803610571575b50509061023d92916107e4565b8488106105a457506105888461023d9697986107b6565b905f5260058752855f20335f528752855f20558594935f610564565b855162461bcd60e51b81529081018790526016602482015275696e73756666696369656e7420616c6c6f77616e636560501b6044820152606490fd5b50346101c7575f3660031901126101c7576020906003549051908152f35b50346101c757806003193601126101c75760209061061a61078a565b602435335f5260058452825f209160018060a01b031691825f52845280835f205582519081527f8c5be1e5ebec7d5bd14f71427d1e84f3dd0314c0f7b2291e5b200ac8c7c3b925843392a35160018152f35b919050346101c7575f3660031901126101c7575f805460018160011c9060018316928315610739575b60209384841081146103495783885290811561032d57506001146106e557505050829003601f01601f191682019267ffffffffffffffff8411838510176102c457508291826102c0925282610743565b5f808052929350837f290decd9548b62a8d60345a988386fc84ba6bc95484008f6362f93160ef3e5635b83851061072557505050508301015f808061028e565b80548886018301529301928490820161070f565b91607f1691610695565b602080825282518183018190529093925f5b82811061077657505060409293505f838284010152601f8019910116010190565b818101860151848201604001528501610755565b600435906001600160a01b03821682036101c757565b602435906001600160a01b03821682036101c757565b919082039182116107c357565b634e487b7160e01b5f52601160045260245ffd5b919082018092116107c357565b60018060a01b0380911691825f5260046020528360405f205410610862577fddf252ad1be2c89b69c2b068fc378daa952ba7f163c4a11628f55a4df523b3ef91602091845f526004835260405f2061083d8782546107b6565b90551693845f526004825260405f206108578282546107d7565b9055604051908152a3565b60405162461bcd60e51b8152602060048201526014602482015273696e73756666696369656e742062616c616e636560601b6044820152606490fdfea2646970667358221220649125d54148e9371f386389f8062148a7c6a2ff94e87d9761c53a61c5812e9e64736f6c63430008180033","linkReferences":{}},"methodIdentifiers":{"FAUCET_AMOUNT()":"76697640","FAUCET_COOLDOWN()":"7d1d5d19","allowance(address,address)":"dd62ed3e","approve(address,uint256)":"095ea7b3","balanceOf(address)":"70a08231","decimals()":"313ce567","faucet()":"de5f72fd","lastFaucet(address)":"4799e212","mint(address,uint256)":"40c10f19","name()":"06fdde03","owner()":"8da5cb5b","symbol()":"95d89b41","totalSupply()":"18160ddd","transfer(address,uint256)":"a9059cbb","transferFrom(address,address,uint256)":"23b872dd"},"id":21}