{"abi":[{"type":"constructor","inputs":[],"stateMutability":"nonpayable"},{"type":"function","name":"addFeeder","inputs":[{"name":"feeder","type":"address","internalType":"address"}],"outputs":[],"stateMutability":"nonpayable"},{"type":"function","name":"feeders","inputs":[{"name":"","type":"address","internalType":"address"}],"outputs":[{"name":"","type":"bool","internalType":"bool"}],"stateMutability":"view"},{"type":"function","name":"getMarkPrice","inputs":[{"name":"assetIndex","type":"uint32","internalType":"uint32"}],"outputs":[{"name":"","type":"uint256","internalType":"uint256"}],"stateMutability":"view"},{"type":"function","name":"getOraclePrice","inputs":[{"name":"assetIndex","type":"uint32","internalType":"uint32"}],"outputs":[{"name":"","type":"uint256","internalType":"uint256"}],"stateMutability":"view"},{"type":"function","name":"getPrices","inputs":[{"name":"assetIndex","type":"uint32","internalType":"uint32"}],"outputs":[{"name":"","type":"uint256","internalType":"uint256"},{"name":"","type":"uint256","internalType":"uint256"}],"stateMutability":"view"},{"type":"function","name":"lastUpdated","inputs":[{"name":"","type":"uint32","internalType":"uint32"}],"outputs":[{"name":"","type":"uint256","internalType":"uint256"}],"stateMutability":"view"},{"type":"function","name":"owner","inputs":[],"outputs":[{"name":"","type":"address","internalType":"address"}],"stateMutability":"view"},{"type":"function","name":"prices","inputs":[{"name":"","type":"uint32","internalType":"uint32"}],"outputs":[{"name":"","type":"uint256","internalType":"uint256"}],"stateMutability":"view"},{"type":"function","name":"removeFeeder","inputs":[{"name":"feeder","type":"address","internalType":"address"}],"outputs":[],"stateMutability":"nonpayable"},{"type":"function","name":"setPrice","inputs":[{"name":"assetIndex","type":"uint32","internalType":"uint32"},{"name":"price","type":"uint256","internalType":"uint256"}],"outputs":[],"stateMutability":"nonpayable"},{"type":"function","name":"setPriceBatch","inputs":[{"name":"indices","type":"uint32[]","internalType":"uint32[]"},{"name":"newPrices","type":"uint256[]","internalType":"uint256[]"}],"outputs":[],"stateMutability":"nonpayable"},{"type":"event","name":"FeederAdded","inputs":[{"name":"feeder","type":"address","indexed":false,"internalType":"address"}],"anonymous":false},{"type":"event","name":"FeederRemoved","inputs":[{"name":"feeder","type":"address","indexed":false,"internalType":"address"}],"anonymous":false},{"type":"event","name":"PriceSet","inputs":[{"name":"assetIndex","type":"uint32","indexed":true,"internalType":"uint32"},{"name":"price","type":"uint256","indexed":false,"internalType":"uint256"},{"name":"setter","type":"address","indexed":false,"internalType":"address"}],"anonymous":false}],"bytecode":{"object":"0x60806040818152346100fd5762498c20903360018060a01b03195f5416175f55335f526001602052805f20600160ff198254161790555f805260026020526413ca651200815f205560015f526377359400815f205560025f526307bfa480815f205560035f5262124f80815f205560045f52621b7740815f205560055f5263017d7840815f205560065f526207a120815f205560075f526202bf20815f205560085f5262d59f80815f205560095f52625b8d80815f2055600a5f5262e4e1c0815f2055600b5f526304f9cdc0815f2055600c5f526401343732c0815f2055600d5f5263054e0840815f2055600e5f525f205561060690816101028239f35b5f80fdfe6080604090808252600480361015610015575f80fd5b5f3560e01c9182630aa316611461047157508163155fb6ae146103fb5781632af78bd114610108578163427bd5c61461028c578163655750ac146102585781638da5cb5b146102315781638e1207dc146101be575080638e1857e81461010d578063a066fae914610108578063a783758f146100d05763b527fe1814610099575f80fd5b346100cc5760203660031901126100cc5760209063ffffffff6100ba6104ad565b165f5260038252805f20549051908152f35b5f80fd5b50346100cc5760203660031901126100cc5763ffffffff6100ef6104ad565b165f526002602052805f20548151908082526020820152f35b6104c0565b50346100cc57806003193601126100cc577fc46f5388bdcd1464a2cda922798af8f31ea5ae29b081db8a8c96807791215ebd6101a661014a6104ad565b63ffffffff60243591335f52600160205260ff865f20541680156101ab575b6101729061055e565b165f818152600260209081528682208490556003815290869020429055945191825233948201949094529081906040820190565b0390a2005b505f546001600160a01b03163314610169565b9050346100cc5760203660031901126100cc576001600160a01b039035818116908190036100cc577fb0bc40f69e0e5f4bb32517529a6b4eb76c452372c18fe559934d27a4a8f88dce926102186020935f54163314610526565b815f5260018352805f2060ff19815416905551908152a1005b82346100cc575f3660031901126100cc575f5490516001600160a01b039091168152602090f35b82346100cc5760203660031901126100cc5760209063ffffffff61027a6104ad565b165f5260028252805f20549051908152f35b82346100cc57806003193601126100cc5767ffffffffffffffff9082358281116100cc576102bd90369085016104f5565b9390926024359081116100cc576102d790369083016104f5565b90335f52600195602093600160205260ff865f20541680156103e8575b6102fd9061055e565b8382036103b357505f5b81811061031057005b808261031e8a93878761059b565b35896103396103348563ffffffff95869461059b565b6105bf565b165f5260028852885f20558061035361033484878d61059b565b165f526003875242885f20557fc46f5388bdcd1464a2cda922798af8f31ea5ae29b081db8a8c96807791215ebd61038e61033484878d61059b565b9161039a84898961059b565b8a5190358152336020820152921691604090a201610307565b606490602087519162461bcd60e51b8352820152600f60248201526e0d8cadccee8d040dad2e6dac2e8c6d608b1b6044820152fd5b505f546001600160a01b031633146102f4565b9050346100cc5760203660031901126100cc576001600160a01b039035818116908190036100cc577f53813a21bbdd00f3df18b895e7321dea1615b185cccbe44f4a669c3f7a96dfa7926104556020935f54163314610526565b815f5260018352805f20600160ff1982541617905551908152a1005b9150346100cc5760203660031901126100cc57356001600160a01b038116908190036100cc5760209260ff915f52600184525f20541615158152f35b6004359063ffffffff821682036100cc57565b346100cc5760203660031901126100cc5763ffffffff6104de6104ad565b165f526002602052602060405f2054604051908152f35b9181601f840112156100cc5782359167ffffffffffffffff83116100cc576020808501948460051b0101116100cc57565b1561052d57565b60405162461bcd60e51b81526020600482015260096024820152683737ba1037bbb732b960b91b6044820152606490fd5b1561056557565b60405162461bcd60e51b815260206004820152600e60248201526d1b9bdd08185d5d1a1bdc9a5e995960921b6044820152606490fd5b91908110156105ab5760051b0190565b634e487b7160e01b5f52603260045260245ffd5b3563ffffffff811681036100cc579056fea2646970667358221220b81d5ec6820dc1700221759de948b6e0c23a9993a6b98d57fcffd300d58bb6a464736f6c63430008180033","linkReferences":{}},"methodIdentifiers":{"addFeeder(address)":"155fb6ae","feeders(address)":"0aa31661","getMarkPrice(uint32)":"a066fae9","getOraclePrice(uint32)":"2af78bd1","getPrices(uint32)":"a783758f","lastUpdated(uint32)":"b527fe18","owner()":"8da5cb5b","prices(uint32)":"655750ac","removeFeeder(address)":"8e1207dc","setPrice(uint32,uint256)":"8e1857e8","setPriceBatch(uint32[],uint256[])":"427bd5c6"},"id":20}