{"abi":[{"type":"constructor","inputs":[{"name":"_factory","type":"address","internalType":"address"},{"name":"_usdh","type":"address","internalType":"address"}],"stateMutability":"nonpayable"},{"type":"function","name":"FEE_DENOM","inputs":[],"outputs":[{"name":"","type":"uint256","internalType":"uint256"}],"stateMutability":"view"},{"type":"function","name":"PLATFORM_FEE_BPS","inputs":[],"outputs":[{"name":"","type":"uint256","internalType":"uint256"}],"stateMutability":"view"},{"type":"function","name":"REFERRAL_SHARE","inputs":[],"outputs":[{"name":"","type":"uint256","internalType":"uint256"}],"stateMutability":"view"},{"type":"function","name":"buyWithReferral","inputs":[{"name":"market","type":"address","internalType":"address"},{"name":"isYes","type":"bool","internalType":"bool"},{"name":"usdhIn","type":"uint256","internalType":"uint256"},{"name":"minShares","type":"uint256","internalType":"uint256"},{"name":"referrerAddr","type":"address","internalType":"address"}],"outputs":[{"name":"sharesOut","type":"uint256","internalType":"uint256"}],"stateMutability":"nonpayable"},{"type":"function","name":"claimReferralEarnings","inputs":[],"outputs":[],"stateMutability":"nonpayable"},{"type":"function","name":"factory","inputs":[],"outputs":[{"name":"","type":"address","internalType":"address"}],"stateMutability":"view"},{"type":"function","name":"getReferralStats","inputs":[{"name":"user","type":"address","internalType":"address"}],"outputs":[{"name":"myReferrer","type":"address","internalType":"address"},{"name":"referralsGenerated","type":"uint256","internalType":"uint256"},{"name":"earningsPending","type":"uint256","internalType":"uint256"},{"name":"lifetimeVolume","type":"uint256","internalType":"uint256"}],"stateMutability":"view"},{"type":"function","name":"getTradeQuote","inputs":[{"name":"market","type":"address","internalType":"address"},{"name":"isYes","type":"bool","internalType":"bool"},{"name":"usdhIn","type":"uint256","internalType":"uint256"}],"outputs":[{"name":"sharesOut","type":"uint256","internalType":"uint256"},{"name":"priceAfter","type":"uint256","internalType":"uint256"},{"name":"priceImpactBps","type":"uint256","internalType":"uint256"},{"name":"feePaid","type":"uint256","internalType":"uint256"}],"stateMutability":"view"},{"type":"function","name":"owner","inputs":[],"outputs":[{"name":"","type":"address","internalType":"address"}],"stateMutability":"view"},{"type":"function","name":"referralEarnings","inputs":[{"name":"","type":"address","internalType":"address"}],"outputs":[{"name":"","type":"uint256","internalType":"uint256"}],"stateMutability":"view"},{"type":"function","name":"referrer","inputs":[{"name":"","type":"address","internalType":"address"}],"outputs":[{"name":"","type":"address","internalType":"address"}],"stateMutability":"view"},{"type":"function","name":"rescueTokens","inputs":[{"name":"token","type":"address","internalType":"address"},{"name":"amount","type":"uint256","internalType":"uint256"}],"outputs":[],"stateMutability":"nonpayable"},{"type":"function","name":"sell","inputs":[{"name":"market","type":"address","internalType":"address"},{"name":"isYes","type":"bool","internalType":"bool"},{"name":"shares","type":"uint256","internalType":"uint256"},{"name":"minUsdh","type":"uint256","internalType":"uint256"}],"outputs":[{"name":"usdhOut","type":"uint256","internalType":"uint256"}],"stateMutability":"nonpayable"},{"type":"function","name":"totalReferred","inputs":[{"name":"","type":"address","internalType":"address"}],"outputs":[{"name":"","type":"uint256","internalType":"uint256"}],"stateMutability":"view"},{"type":"function","name":"totalVolume","inputs":[{"name":"","type":"address","internalType":"address"}],"outputs":[{"name":"","type":"uint256","internalType":"uint256"}],"stateMutability":"view"},{"type":"function","name":"usdh","inputs":[],"outputs":[{"name":"","type":"address","internalType":"address"}],"stateMutability":"view"},{"type":"event","name":"ReferralClaimed","inputs":[{"name":"referrer","type":"address","indexed":true,"internalType":"address"},{"name":"amount","type":"uint256","indexed":false,"internalType":"uint256"}],"anonymous":false},{"type":"event","name":"ReferralEarned","inputs":[{"name":"referrer","type":"address","indexed":true,"internalType":"address"},{"name":"amount","type":"uint256","indexed":false,"internalType":"uint256"}],"anonymous":false},{"type":"event","name":"ReferralSet","inputs":[{"name":"user","type":"address","indexed":true,"internalType":"address"},{"name":"referrer","type":"address","indexed":true,"internalType":"address"}],"anonymous":false},{"type":"event","name":"TradeRouted","inputs":[{"name":"user","type":"address","indexed":true,"internalType":"address"},{"name":"market","type":"address","indexed":true,"internalType":"address"},{"name":"isYes","type":"bool","indexed":false,"internalType":"bool"},{"name":"usdhIn","type":"uint256","indexed":false,"internalType":"uint256"},{"name":"sharesOut","type":"uint256","indexed":false,"internalType":"uint256"}],"anonymous":false},{"type":"error","name":"NothingToClaim","inputs":[]},{"type":"error","name":"OnlyOwner","inputs":[]},{"type":"error","name":"SelfReferral","inputs":[]}],"bytecode":{"object":"0x60a03461009657601f610c4238819003918201601f19168301916001600160401b0383118484101761009a57808492604094855283398101031261009657610052602061004b836100ae565b92016100ae565b9060015f5560805260018060a01b03199060018060a01b031681600154161760015533906002541617600255604051610b7f90816100c38239608051816105890152f35b5f80fd5b634e487b7160e01b5f52604160045260245ffd5b51906001600160a01b03821682036100965756fe604060808152600480361015610013575f80fd5b5f3560e01c9081631027e05f146108d35781631150e2231461089c57816321bade131461083d5781632cf003c2146108045781634886c675146107e8578163539aa77f146107cd578163573761981461071e57816384ae48b5146106315781638da5cb5b14610609578163b21b5a21146105ed578163c07b528a146105b8578163c45a015514610575578163cb0351771461054d578163e0276b1d14610482578163e3cce43914610107575063e62b9e6c146100cd575f80fd5b34610103576020366003190112610103576020906001600160a01b036100f1610a2b565b165f5260068252805f20549051908152f35b5f80fd5b9050346101035760a036600319011261010357610122610a2b565b9161012b610a41565b6001600160a01b03608435818116959194919291604435918790036101035761015860025f541415610a50565b60025f558615158061046d575b6103d9575b855f969750600154168551906323b872dd60e01b825233838301523060248301528360448301528160648160209a8b945af180156103cf576103b2575b506101b182610b18565b936101bc8584610b0b565b94335f52600388528789885f20541691821515806103a9575b1561039d57907fa608f6220f3abb65b00f42374e48cfe8044f167c272c987c1a4484e5f365f85b91835f52858252895f20610211828254610aea565b90558951908152a25b600154865163095ea7b360e01b81526001600160a01b038316848201908152602081018890529091899183918c169082905f90829060400103925af18015610393579188999161029d999493610366575b50169486519788928392626a604b60e21b84528760643592850160409194939260608201951515825260208201520152565b03815f875af194851561035c575f9561030d575b50847f06b97313a53745a2a15a1df92a1958c5bfb5f78bce2fd6edc500f6b672362c6e91335f5260068852855f206102ea828254610aea565b905585519315158452602084015260408301523391606090a360015f5551908152f35b9094508581813d8311610355575b6103258183610a9c565b810103126101035751937f06b97313a53745a2a15a1df92a1958c5bfb5f78bce2fd6edc500f6b672362c6e6102b1565b503d61031b565b84513d5f823e3d90fd5b61038590853d871161038c575b61037d8183610a9c565b810190610ad2565b505f61026b565b503d610373565b87513d5f823e3d90fd5b5050509350819361021a565b508015156101d5565b6103c890873d891161038c5761037d8183610a9c565b505f6101a7565b86513d5f823e3d90fd5b33871461045f57335f526003602052845f20876bffffffffffffffffffffffff60a01b825416179055865f526005602052845f209687546001810180911161044c575f979855337fdf63218877cb126f6c003f2b7f77327674cd6a0b53ad51deac392548ec12b0ed8880a386955061016a565b601183634e487b7160e01b5f525260245ffd5b8451632af47b8760e11b8152fd5b50335f52600360205285855f20541615610165565b90503461010357606090816003193601126101035761049f610a2b565b91806104a9610a41565b9260448035946104c26104bb87610b18565b8097610b0b565b968851978894859363e825648560e01b8552151590840152602483015260018060a01b03165afa801561035c575f935f905f92610511575b509460809581519586526020860152840152820152f35b945050508083813d8311610546575b61052a8183610a9c565b81010312610103578251602084015193850151909360806104fa565b503d610520565b8234610103575f3660031901126101035760015490516001600160a01b039091168152602090f35b8234610103575f36600319011261010357517f00000000000000000000000000000000000000000000000000000000000000006001600160a01b03168152602090f35b8234610103576020366003190112610103576020916001600160a01b036105dd610a2b565b165f528252805f20549051908152f35b8234610103575f36600319011261010357602090516103e88152f35b8234610103575f3660031901126101035760025490516001600160a01b039091168152602090f35b8234610103575f3660031901126101035761065060025f541415610a50565b60025f55335f526020828152815f205491821561070f57335f818152858452828120819055600154835163a9059cbb60e01b8152968701928352602083018690528492879290839003604001918391906001600160a01b03165af1938415610705577f6cd4d40588b17656762e007b5b0c873a86cc13d23123cd1c44b4389b8aafa10593946106e8575b50519283523392a260015f55005b6106fe90833d851161038c5761037d8183610a9c565b50846106da565b50513d5f823e3d90fd5b516312d37ee560e31b81528390fd5b8234610103578060031936011261010357610737610a2b565b6002546001600160a01b0390811690338290036107bd57835163a9059cbb60e01b81526001600160a01b03929092169482019485526024356020808701919091529194919285928390036040019183915f91165af19081156107b4575061079a57005b6107b29060203d60201161038c5761037d8183610a9c565b005b513d5f823e3d90fd5b50505051635fc483c560e01b8152fd5b8234610103575f366003190112610103576020905160c88152f35b8234610103575f36600319011261010357602090516127108152f35b8234610103576020366003190112610103576020906001600160a01b038061082a610a2b565b165f5260038352815f2054169051908152f35b823461010357602080600319360112610103576080926001600160a01b0380610864610a2b565b165f5260038352835f2054169260058352805f2054918352805f20549160068452815f20549382519586528501528301526060820152f35b8234610103576020366003190112610103576020906001600160a01b036108c1610a2b565b165f5260058252805f20549051908152f35b9050346101035760803660031901126101035761094f916108f2610a2b565b916108fb610a41565b61090960025f541415610a50565b60025f5560018060a01b03908351809563de25465960e01b8252815f858260209b8c9760643590604435908c850160409194939260608201951515825260208201520152565b0393165af1938415610a2157908592915f956109ee575b50600154845163a9059cbb60e01b81523393810193845260208401879052939284929091169082905f9082906040015b03925af180156109e4576109c7575b50335f5260068352805f206109bb838254610aea565b905560015f5551908152f35b6109dd90843d861161038c5761037d8183610a9c565b505f6109a5565b82513d5f823e3d90fd5b9194509181813d8111610a1a575b610a068183610a9c565b810103126101035751928491610996610966565b503d6109fc565b83513d5f823e3d90fd5b600435906001600160a01b038216820361010357565b60243590811515820361010357565b15610a5757565b60405162461bcd60e51b815260206004820152601f60248201527f5265656e7472616e637947756172643a207265656e7472616e742063616c6c006044820152606490fd5b90601f8019910116810190811067ffffffffffffffff821117610abe57604052565b634e487b7160e01b5f52604160045260245ffd5b90816020910312610103575180151581036101035790565b91908201809211610af757565b634e487b7160e01b5f52601160045260245ffd5b91908203918211610af757565b60c881029080820460c81490151715610af7576127108091046103e890818102918183041490151715610af757049056fea2646970667358221220e3b42d4388066cc67542e0ed1d69521c8613cef0359d4ee16ee70a24a1f1aec964736f6c63430008180033","linkReferences":{}},"methodIdentifiers":{"FEE_DENOM()":"4886c675","PLATFORM_FEE_BPS()":"539aa77f","REFERRAL_SHARE()":"b21b5a21","buyWithReferral(address,bool,uint256,uint256,address)":"e3cce439","claimReferralEarnings()":"84ae48b5","factory()":"c45a0155","getReferralStats(address)":"21bade13","getTradeQuote(address,bool,uint256)":"e0276b1d","owner()":"8da5cb5b","referralEarnings(address)":"c07b528a","referrer(address)":"2cf003c2","rescueTokens(address,uint256)":"57376198","sell(address,bool,uint256,uint256)":"1027e05f","totalReferred(address)":"1150e223","totalVolume(address)":"e62b9e6c","usdh()":"cb035177"},"id":19}